{
  "_format": "hh3-artifact-1",
  "contractName": "SalesFactory",
  "sourceName": "contracts/launchpad/SalesFactory.sol",
  "abi": [
    {
      "inputs": [
        {
          "internalType": "address",
          "name": "_treasuryAddress",
          "type": "address"
        },
        {
          "internalType": "address",
          "name": "_lpVault",
          "type": "address"
        }
      ],
      "stateMutability": "nonpayable",
      "type": "constructor"
    },
    {
      "inputs": [
        {
          "internalType": "address",
          "name": "owner",
          "type": "address"
        }
      ],
      "name": "OwnableInvalidOwner",
      "type": "error"
    },
    {
      "inputs": [
        {
          "internalType": "address",
          "name": "account",
          "type": "address"
        }
      ],
      "name": "OwnableUnauthorizedAccount",
      "type": "error"
    },
    {
      "inputs": [],
      "name": "ZeroAddress",
      "type": "error"
    },
    {
      "anonymous": false,
      "inputs": [
        {
          "indexed": false,
          "internalType": "address",
          "name": "oldAddress",
          "type": "address"
        },
        {
          "indexed": false,
          "internalType": "address",
          "name": "newAddress",
          "type": "address"
        }
      ],
      "name": "LPVaultUpdated",
      "type": "event"
    },
    {
      "anonymous": false,
      "inputs": [
        {
          "indexed": true,
          "internalType": "address",
          "name": "previousOwner",
          "type": "address"
        },
        {
          "indexed": true,
          "internalType": "address",
          "name": "newOwner",
          "type": "address"
        }
      ],
      "name": "OwnershipTransferred",
      "type": "event"
    },
    {
      "anonymous": false,
      "inputs": [
        {
          "indexed": true,
          "internalType": "address",
          "name": "saleAddress",
          "type": "address"
        },
        {
          "indexed": false,
          "internalType": "address",
          "name": "saleOwner",
          "type": "address"
        },
        {
          "indexed": false,
          "internalType": "address",
          "name": "token",
          "type": "address"
        },
        {
          "components": [
            {
              "internalType": "uint256",
              "name": "startTime",
              "type": "uint256"
            },
            {
              "internalType": "uint256",
              "name": "endTime",
              "type": "uint256"
            },
            {
              "internalType": "uint256",
              "name": "softCap",
              "type": "uint256"
            },
            {
              "internalType": "uint256",
              "name": "hardCap",
              "type": "uint256"
            },
            {
              "internalType": "uint256",
              "name": "maxBuy",
              "type": "uint256"
            },
            {
              "internalType": "uint256",
              "name": "saleSold",
              "type": "uint256"
            },
            {
              "internalType": "uint256",
              "name": "totalTokensForSale",
              "type": "uint256"
            },
            {
              "internalType": "bytes",
              "name": "salesJson",
              "type": "bytes"
            },
            {
              "internalType": "uint256",
              "name": "totalTokensForLiquidity",
              "type": "uint256"
            },
            {
              "internalType": "uint8",
              "name": "liquidityBPS",
              "type": "uint8"
            }
          ],
          "indexed": false,
          "internalType": "struct Sales.SaleData",
          "name": "saleData",
          "type": "tuple"
        }
      ],
      "name": "SaleCreated",
      "type": "event"
    },
    {
      "anonymous": false,
      "inputs": [
        {
          "indexed": false,
          "internalType": "address",
          "name": "oldAddress",
          "type": "address"
        },
        {
          "indexed": false,
          "internalType": "address",
          "name": "newAddress",
          "type": "address"
        }
      ],
      "name": "TreasuryAddressUpdated",
      "type": "event"
    },
    {
      "inputs": [
        {
          "internalType": "uint256",
          "name": "",
          "type": "uint256"
        }
      ],
      "name": "allSales",
      "outputs": [
        {
          "internalType": "address",
          "name": "",
          "type": "address"
        }
      ],
      "stateMutability": "view",
      "type": "function"
    },
    {
      "inputs": [
        {
          "internalType": "address",
          "name": "token",
          "type": "address"
        },
        {
          "components": [
            {
              "internalType": "uint256",
              "name": "startTime",
              "type": "uint256"
            },
            {
              "internalType": "uint256",
              "name": "endTime",
              "type": "uint256"
            },
            {
              "internalType": "uint256",
              "name": "softCap",
              "type": "uint256"
            },
            {
              "internalType": "uint256",
              "name": "hardCap",
              "type": "uint256"
            },
            {
              "internalType": "uint256",
              "name": "maxBuy",
              "type": "uint256"
            },
            {
              "internalType": "uint256",
              "name": "saleSold",
              "type": "uint256"
            },
            {
              "internalType": "uint256",
              "name": "totalTokensForSale",
              "type": "uint256"
            },
            {
              "internalType": "bytes",
              "name": "salesJson",
              "type": "bytes"
            },
            {
              "internalType": "uint256",
              "name": "totalTokensForLiquidity",
              "type": "uint256"
            },
            {
              "internalType": "uint8",
              "name": "liquidityBPS",
              "type": "uint8"
            }
          ],
          "internalType": "struct Sales.SaleData",
          "name": "_saleData",
          "type": "tuple"
        },
        {
          "components": [
            {
              "internalType": "address",
              "name": "tokenAddress",
              "type": "address"
            },
            {
              "internalType": "uint8",
              "name": "tokenDecimals",
              "type": "uint8"
            },
            {
              "internalType": "string",
              "name": "tokenSymbol",
              "type": "string"
            },
            {
              "internalType": "string",
              "name": "tokenName",
              "type": "string"
            },
            {
              "internalType": "uint256",
              "name": "tokenTotalSupply",
              "type": "uint256"
            }
          ],
          "internalType": "struct Sales.TokenData",
          "name": "_tokenData",
          "type": "tuple"
        }
      ],
      "name": "createSale",
      "outputs": [
        {
          "internalType": "address",
          "name": "saleAddress",
          "type": "address"
        }
      ],
      "stateMutability": "nonpayable",
      "type": "function"
    },
    {
      "inputs": [],
      "name": "getAllSales",
      "outputs": [
        {
          "internalType": "address[]",
          "name": "",
          "type": "address[]"
        }
      ],
      "stateMutability": "view",
      "type": "function"
    },
    {
      "inputs": [
        {
          "internalType": "address",
          "name": "owner",
          "type": "address"
        }
      ],
      "name": "getSalesByOwner",
      "outputs": [
        {
          "internalType": "address[]",
          "name": "",
          "type": "address[]"
        }
      ],
      "stateMutability": "view",
      "type": "function"
    },
    {
      "inputs": [],
      "name": "lpVault",
      "outputs": [
        {
          "internalType": "address",
          "name": "",
          "type": "address"
        }
      ],
      "stateMutability": "view",
      "type": "function"
    },
    {
      "inputs": [],
      "name": "owner",
      "outputs": [
        {
          "internalType": "address",
          "name": "",
          "type": "address"
        }
      ],
      "stateMutability": "view",
      "type": "function"
    },
    {
      "inputs": [],
      "name": "renounceOwnership",
      "outputs": [],
      "stateMutability": "nonpayable",
      "type": "function"
    },
    {
      "inputs": [
        {
          "internalType": "address",
          "name": "",
          "type": "address"
        },
        {
          "internalType": "uint256",
          "name": "",
          "type": "uint256"
        }
      ],
      "name": "salesByOwner",
      "outputs": [
        {
          "internalType": "address",
          "name": "",
          "type": "address"
        }
      ],
      "stateMutability": "view",
      "type": "function"
    },
    {
      "inputs": [
        {
          "internalType": "address",
          "name": "_lpVault",
          "type": "address"
        }
      ],
      "name": "setLPVault",
      "outputs": [],
      "stateMutability": "nonpayable",
      "type": "function"
    },
    {
      "inputs": [
        {
          "internalType": "address",
          "name": "_treasuryAddress",
          "type": "address"
        }
      ],
      "name": "setTreasuryAddress",
      "outputs": [],
      "stateMutability": "nonpayable",
      "type": "function"
    },
    {
      "inputs": [],
      "name": "totalSales",
      "outputs": [
        {
          "internalType": "uint256",
          "name": "",
          "type": "uint256"
        }
      ],
      "stateMutability": "view",
      "type": "function"
    },
    {
      "inputs": [
        {
          "internalType": "address",
          "name": "newOwner",
          "type": "address"
        }
      ],
      "name": "transferOwnership",
      "outputs": [],
      "stateMutability": "nonpayable",
      "type": "function"
    },
    {
      "inputs": [],
      "name": "treasuryAddress",
      "outputs": [
        {
          "internalType": "address",
          "name": "",
          "type": "address"
        }
      ],
      "stateMutability": "view",
      "type": "function"
    },
    {
      "stateMutability": "payable",
      "type": "receive"
    }
  ],
  "bytecode": "0x608060405234801561000f575f5ffd5b506040516130e93803806130e983398101604081905261002e91610133565b338061005357604051631e4fbdf760e01b81525f600482015260240160405180910390fd5b61005c816100c9565b506001600160a01b038216158061007a57506001600160a01b038116155b156100985760405163d92e233d60e01b815260040160405180910390fd5b600180546001600160a01b039384166001600160a01b03199182161790915560028054929093169116179055610164565b5f80546001600160a01b038381166001600160a01b0319831681178455604051919092169283917f8be0079c531659141344cd1fd0a4f28419497f9722a3daafe3b4186f6b6457e09190a35050565b80516001600160a01b038116811461012e575f5ffd5b919050565b5f5f60408385031215610144575f5ffd5b61014d83610118565b915061015b60208401610118565b90509250929050565b612f78806101715f395ff3fe6080604052600436106100c2575f3560e01c80636605ff661161007c5780638da5cb5b116100575780638da5cb5b146101f8578063b5f6e65114610214578063c5f956af14610233578063f2fde38b14610252575f5ffd5b80636605ff66146101a85780636c8d9e37146101c5578063715018a6146101e4575f5ffd5b80631335aa2f146100cd5780631431e145146101095780632f8673671461013557806333396917146101545780635b30b428146101685780636605bfda14610187575f5ffd5b366100c957005b5f5ffd5b3480156100d8575f5ffd5b506100ec6100e736600461088b565b610271565b6040516001600160a01b0390911681526020015b60405180910390f35b348015610114575f5ffd5b506101286101233660046108b5565b6102a5565b60405161010091906108d7565b348015610140575f5ffd5b506002546100ec906001600160a01b031681565b34801561015f575f5ffd5b50610128610318565b348015610173575f5ffd5b506100ec610182366004610922565b610378565b348015610192575f5ffd5b506101a66101a13660046108b5565b6103a0565b005b3480156101b3575f5ffd5b50600354604051908152602001610100565b3480156101d0575f5ffd5b506101a66101df3660046108b5565b610438565b3480156101ef575f5ffd5b506101a66104d0565b348015610203575f5ffd5b505f546001600160a01b03166100ec565b34801561021f575f5ffd5b506100ec61022e366004610ae0565b6104e3565b34801561023e575f5ffd5b506001546100ec906001600160a01b031681565b34801561025d575f5ffd5b506101a661026c3660046108b5565b610682565b6004602052815f5260405f20818154811061028a575f80fd5b5f918252602090912001546001600160a01b03169150829050565b6001600160a01b0381165f9081526004602090815260409182902080548351818402810184019094528084526060939283018282801561030c57602002820191905f5260205f20905b81546001600160a01b031681526001909101906020018083116102ee575b50505050509050919050565b6060600380548060200260200160405190810160405280929190818152602001828054801561036e57602002820191905f5260205f20905b81546001600160a01b03168152600190910190602001808311610350575b5050505050905090565b60038181548110610387575f80fd5b5f918252602090912001546001600160a01b0316905081565b6103a86106c4565b6001600160a01b0381166103cf5760405163d92e233d60e01b815260040160405180910390fd5b600154604080516001600160a01b03928316815291831660208301527f430359a6d97ced2b6f93c77a91e7ce9dfd43252eb91e916adba170485cd8a6a4910160405180910390a1600180546001600160a01b0319166001600160a01b0392909216919091179055565b6104406106c4565b6001600160a01b0381166104675760405163d92e233d60e01b815260040160405180910390fd5b600254604080516001600160a01b03928316815291831660208301527f68033c8aa9ca216f3968f724f1dfb35bf11d7543432a4c6b004665748a5ae842910160405180910390a1600280546001600160a01b0319166001600160a01b0392909216919091179055565b6104d86106c4565b6104e15f6106f0565b565b6002546001546040515f9283928792879287926001600160a01b03918216923392909116906105119061086a565b61052096959493929190610ca3565b604051809103905ff080158015610539573d5f5f3e3d5ffd5b506003805460018181019092557fc2575a0e9e593c00f959f8c92f12db2869c3395a3b0502d05e2516446f71f85b0180546001600160a01b0384166001600160a01b03199182168117909255335f818152600460209081526040822080549687018155825290209093018054909116909117905560c08601516101008701519294508493506105d69288929185916105d19190610d61565b61073f565b816001600160a01b03167fc3ac362f690fabcd1f340d20f4182708704b3e2ed7a739746d21b51e47e7da3633836001600160a01b031663fc0c546a6040518163ffffffff1660e01b8152600401602060405180830381865afa15801561063e573d5f5f3e3d5ffd5b505050506040513d601f19601f820116820180604052508101906106629190610d86565b8760405161067293929190610da1565b60405180910390a2509392505050565b61068a6106c4565b6001600160a01b0381166106b857604051631e4fbdf760e01b81525f60048201526024015b60405180910390fd5b6106c1816106f0565b50565b5f546001600160a01b031633146104e15760405163118cdaa760e01b81523360048201526024016106af565b5f80546001600160a01b038381166001600160a01b0319831681178455604051919092169283917f8be0079c531659141344cd1fd0a4f28419497f9722a3daafe3b4186f6b6457e09190a35050565b604080516001600160a01b0385811660248301528481166044830152606480830185905283518084039091018152608490920183526020820180516001600160e01b03166323b872dd60e01b17905291515f928392908816916107a29190610dd5565b5f604051808303815f865af19150503d805f81146107db576040519150601f19603f3d011682016040523d82523d5f602084013e6107e0565b606091505b509150915081801561080a57508051158061080a57508080602001905181019061080a9190610deb565b6108625760405162461bcd60e51b8152602060048201526024808201527f5472616e7366657248656c7065723a205452414e534645525f46524f4d5f46416044820152631253115160e21b60648201526084016106af565b505050505050565b61213880610e0b83390190565b6001600160a01b03811681146106c1575f5ffd5b5f5f6040838503121561089c575f5ffd5b82356108a781610877565b946020939093013593505050565b5f602082840312156108c5575f5ffd5b81356108d081610877565b9392505050565b602080825282518282018190525f918401906040840190835b818110156109175783516001600160a01b03168352602093840193909201916001016108f0565b509095945050505050565b5f60208284031215610932575f5ffd5b5035919050565b634e487b7160e01b5f52604160045260245ffd5b60405160a0810167ffffffffffffffff8111828210171561097057610970610939565b60405290565b604051610140810167ffffffffffffffff8111828210171561097057610970610939565b5f82601f8301126109a9575f5ffd5b8135602083015f5f67ffffffffffffffff8411156109c9576109c9610939565b50604051601f19601f85018116603f0116810181811067ffffffffffffffff821117156109f8576109f8610939565b604052838152905080828401871015610a0f575f5ffd5b838360208301375f602085830101528094505050505092915050565b803560ff81168114610a3b575f5ffd5b919050565b5f60a08284031215610a50575f5ffd5b610a5861094d565b90508135610a6581610877565b8152610a7360208301610a2b565b6020820152604082013567ffffffffffffffff811115610a91575f5ffd5b610a9d8482850161099a565b604083015250606082013567ffffffffffffffff811115610abc575f5ffd5b610ac88482850161099a565b60608301525060809182013591810191909152919050565b5f5f5f60608486031215610af2575f5ffd5b8335610afd81610877565b9250602084013567ffffffffffffffff811115610b18575f5ffd5b84016101408187031215610b2a575f5ffd5b610b32610976565b813581526020808301359082015260408083013590820152606080830135908201526080808301359082015260a0808301359082015260c0808301359082015260e082013567ffffffffffffffff811115610b8b575f5ffd5b610b978882850161099a565b60e0830152506101008281013590820152610bb56101208301610a2b565b610120820152925050604084013567ffffffffffffffff811115610bd7575f5ffd5b610be386828701610a40565b9150509250925092565b5f81518084528060208401602086015e5f602082860101526020601f19601f83011685010191505092915050565b805182526020810151602083015260408101516040830152606081015160608301526080810151608083015260a081015160a083015260c081015160c08301525f60e082015161014060e0850152610c77610140850182610bed565b9050610100830151610100850152610120830151610c9b61012086018260ff169052565b509392505050565b6001600160a01b038716815260c0602082018190525f90610cc690830188610c1b565b828103604084015260018060a01b03875116815260ff6020880151166020820152604087015160a06040830152610d0060a0830182610bed565b905060608801518282036060840152610d198282610bed565b60808a81015194019390935250506001600160a01b038616606084015290506001600160a01b03841660808301526001600160a01b03831660a0830152979650505050505050565b80820180821115610d8057634e487b7160e01b5f52601160045260245ffd5b92915050565b5f60208284031215610d96575f5ffd5b81516108d081610877565b6001600160a01b038481168252831660208201526060604082018190525f90610dcc90830184610c1b565b95945050505050565b5f82518060208501845e5f920191825250919050565b5f60208284031215610dfb575f5ffd5b815180151581146108d0575f5ffdfe7f57484954454c4953545f5345545445525f524f4c45000000000000000000000060a052601560805260b56040527fc575f9391abcc3218444dc8ff0b3d0b15dfe5a91373e834f97c04cb6baffb44360045534801561005c575f5ffd5b5060405161213838038061213883398101604081905261007b91610487565b33806100a157604051631e4fbdf760e01b81525f60048201526024015b60405180910390fd5b6100aa81610218565b506001600255600980546001600160a01b038089166001600160a01b03199283161790925560088054928616929091169190911790558451600a9081556020860151600b556040860151600c556060860151600d556080860151600e5560a0860151600f5560c086015160105560e086015186919060119061012c9082610646565b506101008201516008820155610120909101516009909101805460ff191660ff92831617905584516014805460208801516001600160a01b039093166001600160a81b031990911617600160a01b9290931691909102919091178155604085015185919060159061019d9082610646565b50606082015160028201906101b29082610646565b506080918201516003909101558401516101208601516064916101d79160ff16610700565b6101e19190610729565b6012556101ed82610267565b600780546001600160a01b0319166001600160a01b0392909216919091179055506107489350505050565b5f80546001600160a01b038381166001600160a01b0319831681178455604051919092169283917f8be0079c531659141344cd1fd0a4f28419497f9722a3daafe3b4186f6b6457e09190a35050565b61026f6102a4565b6001600160a01b03811661029857604051631e4fbdf760e01b81525f6004820152602401610098565b6102a181610218565b50565b5f546001600160a01b031633146102d05760405163118cdaa760e01b8152336004820152602401610098565b565b80516001600160a01b03811681146102e8575f5ffd5b919050565b634e487b7160e01b5f52604160045260245ffd5b60405160a081016001600160401b0381118282101715610323576103236102ed565b60405290565b60405161014081016001600160401b0381118282101715610323576103236102ed565b5f82601f83011261035b575f5ffd5b8151602083015f806001600160401b0384111561037a5761037a6102ed565b50604051601f19601f85018116603f011681018181106001600160401b03821117156103a8576103a86102ed565b6040528381529050808284018710156103bf575f5ffd5b8383602083015e5f602085830101528094505050505092915050565b805160ff811681146102e8575f5ffd5b5f60a082840312156103fb575f5ffd5b610403610301565b905061040e826102d2565b815261041c602083016103db565b602082015260408201516001600160401b03811115610439575f5ffd5b6104458482850161034c565b60408301525060608201516001600160401b03811115610463575f5ffd5b61046f8482850161034c565b60608301525060809182015191810191909152919050565b5f5f5f5f5f5f60c0878903121561049c575f5ffd5b6104a5876102d2565b60208801519096506001600160401b038111156104c0575f5ffd5b8701610140818a0312156104d2575f5ffd5b6104da610329565b815181526020808301519082015260408083015190820152606080830151908201526080808301519082015260a0808301519082015260c0808301519082015260e08201516001600160401b03811115610532575f5ffd5b61053e8b82850161034c565b60e083015250610100828101519082015261055c61012083016103db565b610120820152604089015190965090506001600160401b0381111561057f575f5ffd5b61058b89828a016103eb565b94505061059a606088016102d2565b92506105a8608088016102d2565b91506105b660a088016102d2565b90509295509295509295565b600181811c908216806105d657607f821691505b6020821081036105f457634e487b7160e01b5f52602260045260245ffd5b50919050565b601f82111561064157805f5260205f20601f840160051c8101602085101561061f5750805b601f840160051c820191505b8181101561063e575f815560010161062b565b50505b505050565b81516001600160401b0381111561065f5761065f6102ed565b6106738161066d84546105c2565b846105fa565b6020601f8211600181146106a5575f831561068e5750848201515b5f19600385901b1c1916600184901b17845561063e565b5f84815260208120601f198516915b828110156106d457878501518255602094850194600190920191016106b4565b50848210156106f157868401515f19600387901b60f8161c191681555b50505050600190811b01905550565b808202811582820484141761072357634e487b7160e01b5f52601160045260245ffd5b92915050565b5f8261074357634e487b7160e01b5f52601260045260245ffd5b500490565b6119e3806107555f395ff3fe6080604052600436106101db575f3560e01c80637d7fa215116100fd578063d47bc93a11610092578063dc8bc70d11610062578063dc8bc70d1461058c578063ebdfd7221461059f578063f2fde38b146105b4578063fc0c546a146105d3575f5ffd5b8063d47bc93a14610528578063d547741f1461053b578063d72f3b431461055a578063d96a094a14610579575f5ffd5b80639292caaf116100cd5780639292caaf146104d6578063a217fddf146104eb578063ae2cd52d146104fe578063d1a12d6a14610513575f5ffd5b80637d7fa21514610466578063843f1dbe146104875780638da5cb5b1461049b57806391d14854146104b7575f5ffd5b80632f2ff15d11610173578063440bc7f311610143578063440bc7f3146103e8578063547a5eee146104075780637143059f14610426578063715018a614610452575f5ffd5b80632f2ff15d1461036c57806336568abe1461038b5780633c4dcee6146103aa5780633e116d77146103c9575f5ffd5b806309e69ede116101ae57806309e69ede146102905780630b6d18de146102e65780631637cde014610310578063248a9ca31461032f575f5ffd5b806301fc191c146101df57806301ffc9a714610200578063024fd6501461023457806307604b1a14610259575b5f5ffd5b3480156101ea575f5ffd5b506101fe6101f9366004611555565b505050565b005b34801561020b575f5ffd5b5061021f61021a36600461159d565b6105f2565b60405190151581526020015b60405180910390f35b34801561023f575f5ffd5b50610248610628565b60405161022b9594939291906115f2565b348015610264575f5ffd5b50600754610278906001600160a01b031681565b6040516001600160a01b03909116815260200161022b565b34801561029b575f5ffd5b506102d76102aa36600461165e565b60186020525f90815260409020805460018201546002909201546001600160a01b03909116919060ff1683565b60405161022b939291906116ab565b3480156102f1575f5ffd5b506102fa610765565b60405161022b9a999897969594939291906116d7565b34801561031b575f5ffd5b506101fe61032a366004611737565b610828565b34801561033a575f5ffd5b5061035e610349366004611776565b5f908152600160208190526040909120015490565b60405190815260200161022b565b348015610377575f5ffd5b506101fe61038636600461178d565b61083e565b348015610396575f5ffd5b506101fe6103a536600461178d565b610869565b3480156103b5575f5ffd5b506101fe6103c436600461165e565b61089c565b3480156103d4575f5ffd5b50600854610278906001600160a01b031681565b3480156103f3575f5ffd5b506101fe610402366004611776565b61093b565b348015610412575f5ffd5b506101fe61042136600461165e565b610a89565b348015610431575f5ffd5b5061044561044036600461165e565b610b2d565b60405161022b91906117b7565b34801561045d575f5ffd5b506101fe610bbc565b348015610471575f5ffd5b5061047a610bcf565b60405161022b91906117ec565b348015610492575f5ffd5b5061035e600a81565b3480156104a6575f5ffd5b505f546001600160a01b0316610278565b3480156104c2575f5ffd5b5061021f6104d136600461178d565b610d15565b3480156104e1575f5ffd5b5061035e60055481565b3480156104f6575f5ffd5b5061035e5f81565b348015610509575f5ffd5b5061035e60045481565b34801561051e575f5ffd5b5061035e60035481565b6101fe610536366004611555565b610d3f565b348015610546575f5ffd5b506101fe61055536600461178d565b610ddd565b348015610565575f5ffd5b506101fe610574366004611874565b610e02565b6101fe610587366004611776565b610e9b565b6101fe61059a36600461165e565b610f37565b3480156105aa575f5ffd5b5061035e60065481565b3480156105bf575f5ffd5b506101fe6105ce36600461165e565b611128565b3480156105de575f5ffd5b50600954610278906001600160a01b031681565b5f6001600160e01b03198216637965db0b60e01b148061062257506301ffc9a760e01b6001600160e01b03198316145b92915050565b60148054601580546001600160a01b03831693600160a01b90930460ff16929190610652906118a8565b80601f016020809104026020016040519081016040528092919081815260200182805461067e906118a8565b80156106c95780601f106106a0576101008083540402835291602001916106c9565b820191905f5260205f20905b8154815290600101906020018083116106ac57829003601f168201915b5050505050908060020180546106de906118a8565b80601f016020809104026020016040519081016040528092919081815260200182805461070a906118a8565b80156107555780601f1061072c57610100808354040283529160200191610755565b820191905f5260205f20905b81548152906001019060200180831161073857829003601f168201915b5050505050908060030154905085565b600a8054600b54600c54600d54600e54600f5460105460118054979896979596949593949293919291610797906118a8565b80601f01602080910402602001604051908101604052809291908181526020018280546107c3906118a8565b801561080e5780601f106107e55761010080835404028352916020019161080e565b820191905f5260205f20905b8154815290600101906020018083116107f157829003601f168201915b50505050600883015460099093015491929160ff1690508a565b610830611162565b61083a6001600255565b5050565b5f82815260016020819052604090912001546108598161118a565b6108638383611194565b50505050565b6001600160a01b03811633146108925760405163334bd91960e11b815260040160405180910390fd5b6101f9828261120a565b6108a4611275565b6108b060045482610d15565b6108f85760405162461bcd60e51b81526020600482015260146024820152733737ba103bb434ba32b634b9ba1039b2ba3a32b960611b60448201526064015b60405180910390fd5b6109046004548261120a565b506040516001600160a01b038216907ffc207a8bcdd5332a1120583e36168220c0715c5e8eb65668e320e48d03c9d6ca905f90a250565b6109486004546104d13390565b8061095c57505f546001600160a01b031633145b6109b45760405162461bcd60e51b8152602060048201526024808201527f63616c6c6572206e6f742077686974656c69737420736574746572206f72206f6044820152633bb732b960e11b60648201526084016108ef565b6006544210610a055760405162461bcd60e51b815260206004820152601d60248201527f6d757374206265206265666f72652077686974656c69737420656e647300000060448201526064016108ef565b600554421015610a575760405162461bcd60e51b815260206004820152601960248201527f77686974656c697374696e67206861736e277420626567756e0000000000000060448201526064016108ef565b600381905560405181907fc504a95022b9d01b3024e95b0a85c200d0c538f417160776512b95fcbf7b2daa905f90a250565b610a91611275565b610a9d60045482610d15565b15610aea5760405162461bcd60e51b815260206004820152601860248201527f616c72656164792077686974656c69737420736574746572000000000000000060448201526064016108ef565b610af660045482611194565b506040516001600160a01b038216907f7aba5fc71e3607d34203924738fbacc00b5782879615f86db108794b4bdcc95b905f90a250565b610b4d604080516060810182525f80825260208201819052909182015290565b6001600160a01b038083165f90815260186020908152604091829020825160608101845281549094168452600181015491840191909152600280820154919284019160ff1690811115610ba257610ba2611677565b6002811115610bb357610bb3611677565b90525092915050565b610bc4611275565b610bcd5f6112a1565b565b610c1f6040518061014001604052805f81526020015f81526020015f81526020015f81526020015f81526020015f81526020015f8152602001606081526020015f81526020015f60ff1681525090565b6040805161014081018252600a80548252600b546020830152600c5492820192909252600d546060820152600e546080820152600f5460a082015260105460c08201526011805491929160e084019190610c78906118a8565b80601f0160208091040260200160405190810160405280929190818152602001828054610ca4906118a8565b8015610cef5780601f10610cc657610100808354040283529160200191610cef565b820191905f5260205f20905b815481529060010190602001808311610cd257829003601f168201915b50505091835250506008820154602082015260099091015460ff16604090910152919050565b5f9182526001602090815260408084206001600160a01b0393909316845291905290205460ff1690565b600a54421080610d505750600b5442115b15610d6e5760405163b7b2409760e01b815260040160405180910390fd5b600e54335f90815260186020526040902060010154610d8e9034906118f4565b1115610dad576040516357af6af560e11b815260040160405180910390fd5b610db782826112f0565b610dd457604051635c4ff00360e11b815260040160405180910390fd5b6101f98361136c565b5f8281526001602081905260409091200154610df88161118a565b610863838361120a565b5f610e1461ffff831662015180611907565b610e239062ffffff16846118f4565b600584905560068190556040518481529091507ff6c5d91b176e98c20950e101493008a5e209a0eda47fdc211d6b397828c2abc59060200160405180910390a16040518181527ff1ac15755c2771d73bb847540621ff07140d820efdaafc5872430041680068b19060200160405180910390a1505050565b600a54421080610eac5750600b5442115b15610eca5760405163b7b2409760e01b815260040160405180910390fd5b803414610f0a5760405162461bcd60e51b815260206004820152600e60248201526d125b9d985b1a5908185b5bdd5b9d60921b60448201526064016108ef565b60035415610f2b57604051634dde830360e01b815260040160405180910390fd5b610f343461136c565b50565b600b54421015610f5a57604051639d98b04b60e01b815260040160405180910390fd5b610f62611275565b600f546013545f90606490610f7b90849060ff16611925565b610f85919061193c565b90505f6064610f9584600a611925565b610f9f919061193c565b6007546040519192506001600160a01b03169082156108fc029083905f818181858888f19350505050158015610fd7573d5f5f3e3d5ffd5b506001600160a01b0384166108fc82610ff0858761195b565b610ffa919061195b565b6040518115909202915f818181858888f1935050505015801561101f573d5f5f3e3d5ffd5b506009546012546008545f9263f305d719926001600160a01b03918216929091829188911661104f4260056118f4565b60405160e088901b6001600160e01b03191681526001600160a01b039687166004820152602481019590955260448501939093526064840191909152909216608482015260a481019190915260c4016060604051808303815f875af11580156110ba573d5f5f3e3d5ffd5b505050506040513d601f19601f820116820180604052508101906110de919061196e565b505060408051858152602081018590529081018390527f52c66055cf7320a956274f218515348b0138fe56ed320fef5d3d13e1f120dbef915060600160405180910390a150505050565b611130611275565b6001600160a01b03811661115957604051631e4fbdf760e01b81525f60048201526024016108ef565b610f34816112a1565b600280540361118457604051633ee5aeb560e01b815260040160405180910390fd5b60028055565b610f348133611451565b5f61119f8383610d15565b611203575f8381526001602081815260408084206001600160a01b0387168086529252808420805460ff19169093179092559051339286917f2f8788117e7eff1d82e926ec794901d17c78024a50270940304540a733656f0d9190a4506001610622565b505f610622565b5f6112158383610d15565b15611203575f8381526001602090815260408083206001600160a01b0386168085529252808320805460ff1916905551339286917ff6391f5c32d9c69d2a47ea670b442974b53935d1edc7fd64eb21e047a839171b9190a4506001610622565b5f546001600160a01b03163314610bcd5760405163118cdaa760e01b81523360048201526024016108ef565b5f80546001600160a01b038381166001600160a01b0319831681178455604051919092169283917f8be0079c531659141344cd1fd0a4f28419497f9722a3daafe3b4186f6b6457e09190a35050565b5f6113658383808060200260200160405190810160405280939291908181526020018383602002808284375f92019190915250506003546040516bffffffffffffffffffffffff193360601b16602082015290925060340190506040516020818303038152906040528051906020012061148a565b9392505050565b600a5442108061137d5750600b5442115b1561139b5760405163b7b2409760e01b815260040160405180910390fd5b600e54335f908152601860205260409020600101546113bb9083906118f4565b11156113da576040516357af6af560e11b815260040160405180910390fd5b335f90815260186020526040812060010180543492906113fb9084906118f4565b9091555050600f80543491905f906114149084906118f4565b909155505060405134815233907f8f28852646c20cc973d3a8218f7eefed58c25c909f78f0265af4818c3d4dc2719060200160405180910390a250565b61145b8282610d15565b61083a5760405163e2517d3f60e01b81526001600160a01b0382166004820152602481018390526044016108ef565b5f82611496858461149f565b14949350505050565b5f81815b84518110156114d9576114cf828683815181106114c2576114c2611999565b60200260200101516114e1565b91506001016114a3565b509392505050565b5f8183106114fb575f828152602084905260409020611365565b5f838152602083905260409020611365565b5f5f83601f84011261151d575f5ffd5b50813567ffffffffffffffff811115611534575f5ffd5b6020830191508360208260051b850101111561154e575f5ffd5b9250929050565b5f5f5f60408486031215611567575f5ffd5b83359250602084013567ffffffffffffffff811115611584575f5ffd5b6115908682870161150d565b9497909650939450505050565b5f602082840312156115ad575f5ffd5b81356001600160e01b031981168114611365575f5ffd5b5f81518084528060208401602086015e5f602082860101526020601f19601f83011685010191505092915050565b6001600160a01b038616815260ff8516602082015260a0604082018190525f9061161e908301866115c4565b828103606084015261163081866115c4565b9150508260808301529695505050505050565b80356001600160a01b0381168114611659575f5ffd5b919050565b5f6020828403121561166e575f5ffd5b61136582611643565b634e487b7160e01b5f52602160045260245ffd5b600381106116a757634e487b7160e01b5f52602160045260245ffd5b9052565b6001600160a01b038416815260208101839052606081016116cf604083018461168b565b949350505050565b8a81528960208201528860408201528760608201528660808201528560a08201528460c082015261014060e08201525f6117156101408301866115c4565b90508361010083015260ff83166101208301529b9a5050505050505050505050565b5f5f60208385031215611748575f5ffd5b823567ffffffffffffffff81111561175e575f5ffd5b61176a8582860161150d565b90969095509350505050565b5f60208284031215611786575f5ffd5b5035919050565b5f5f6040838503121561179e575f5ffd5b823591506117ae60208401611643565b90509250929050565b81516001600160a01b031681526020808301519082015260408083015160608301916117e59084018261168b565b5092915050565b6020815281516020820152602082015160408201526040820151606082015260608201516080820152608082015160a082015260a082015160c082015260c082015160e08201525f60e08301516101406101008401526118506101608401826115c4565b90506101008401516101208401526101208401516114d961014085018260ff169052565b5f5f60408385031215611885575f5ffd5b82359150602083013561ffff8116811461189d575f5ffd5b809150509250929050565b600181811c908216806118bc57607f821691505b6020821081036118da57634e487b7160e01b5f52602260045260245ffd5b50919050565b634e487b7160e01b5f52601160045260245ffd5b80820180821115610622576106226118e0565b62ffffff81811683821602908116908181146117e5576117e56118e0565b8082028115828204841417610622576106226118e0565b5f8261195657634e487b7160e01b5f52601260045260245ffd5b500490565b81810381811115610622576106226118e0565b5f5f5f60608486031215611980575f5ffd5b5050815160208301516040909301519094929350919050565b634e487b7160e01b5f52603260045260245ffdfea2646970667358221220cb5da9ef4bdda41cd1be7aecc8a2ea0dd6ff7150f8511d6fc4899c82371dc7c764736f6c634300081c0033a2646970667358221220795d12be4577af1fbad2f3748d87f6aefdccc5312ad3eff2bd35207407ba80af64736f6c634300081c0033",
  "linkReferences": {},
  "deployedLinkReferences": {},
  "immutableReferences": {},
  "inputSourceName": "project/contracts/launchpad/SalesFactory.sol",
  "buildInfoId": "solc-0_8_28-327f4c1f7211a7bffe648fd398210b061f0d0b6b"
}