{
  "_format": "hh3-artifact-1",
  "contractName": "LPVault",
  "sourceName": "contracts/launchpad/LPVault.sol",
  "abi": [
    {
      "inputs": [
        {
          "internalType": "address",
          "name": "_owner",
          "type": "address"
        }
      ],
      "stateMutability": "nonpayable",
      "type": "constructor"
    },
    {
      "inputs": [
        {
          "internalType": "address",
          "name": "owner",
          "type": "address"
        }
      ],
      "name": "OwnableInvalidOwner",
      "type": "error"
    },
    {
      "inputs": [
        {
          "internalType": "address",
          "name": "account",
          "type": "address"
        }
      ],
      "name": "OwnableUnauthorizedAccount",
      "type": "error"
    },
    {
      "anonymous": false,
      "inputs": [
        {
          "indexed": true,
          "internalType": "address",
          "name": "previousOwner",
          "type": "address"
        },
        {
          "indexed": true,
          "internalType": "address",
          "name": "newOwner",
          "type": "address"
        }
      ],
      "name": "OwnershipTransferred",
      "type": "event"
    },
    {
      "inputs": [
        {
          "internalType": "address",
          "name": "token",
          "type": "address"
        }
      ],
      "name": "LPs",
      "outputs": [
        {
          "internalType": "address",
          "name": "LPToken",
          "type": "address"
        }
      ],
      "stateMutability": "view",
      "type": "function"
    },
    {
      "inputs": [],
      "name": "owner",
      "outputs": [
        {
          "internalType": "address",
          "name": "",
          "type": "address"
        }
      ],
      "stateMutability": "view",
      "type": "function"
    },
    {
      "inputs": [],
      "name": "renounceOwnership",
      "outputs": [],
      "stateMutability": "nonpayable",
      "type": "function"
    },
    {
      "inputs": [
        {
          "internalType": "address",
          "name": "newOwner",
          "type": "address"
        }
      ],
      "name": "transferOwnership",
      "outputs": [],
      "stateMutability": "nonpayable",
      "type": "function"
    },
    {
      "inputs": [],
      "name": "withdraw",
      "outputs": [],
      "stateMutability": "nonpayable",
      "type": "function"
    },
    {
      "inputs": [
        {
          "internalType": "address",
          "name": "token",
          "type": "address"
        }
      ],
      "name": "withdrawLP",
      "outputs": [],
      "stateMutability": "nonpayable",
      "type": "function"
    },
    {
      "stateMutability": "payable",
      "type": "receive"
    }
  ],
  "bytecode": "0x6080604052348015600e575f5ffd5b50604051610622380380610622833981016040819052602b9160b4565b806001600160a01b038116605857604051631e4fbdf760e01b81525f600482015260240160405180910390fd5b605f816065565b505060df565b5f80546001600160a01b038381166001600160a01b0319831681178455604051919092169283917f8be0079c531659141344cd1fd0a4f28419497f9722a3daafe3b4186f6b6457e09190a35050565b5f6020828403121560c3575f5ffd5b81516001600160a01b038116811460d8575f5ffd5b9392505050565b610536806100ec5f395ff3fe608060405260043610610057575f3560e01c80632ba11c07146100625780633ccfd60b146100b2578063715018a6146100c85780638da5cb5b146100dc578063c579535a146100f8578063f2fde38b14610117575f5ffd5b3661005e57005b5f5ffd5b34801561006d575f5ffd5b5061009661007c366004610487565b60016020525f90815260409020546001600160a01b031681565b6040516001600160a01b03909116815260200160405180910390f35b3480156100bd575f5ffd5b506100c6610136565b005b3480156100d3575f5ffd5b506100c661014b565b3480156100e7575f5ffd5b505f546001600160a01b0316610096565b348015610103575f5ffd5b506100c6610112366004610487565b61015c565b348015610122575f5ffd5b506100c6610131366004610487565b6101ef565b61013e610231565b61014933303161025d565b565b610153610231565b6101495f610322565b610164610231565b6001600160a01b038181165f908152600160205260408082205490516370a0823160e01b815230600482015292169182906370a0823190602401602060405180830381865afa1580156101b9573d5f5f3e3d5ffd5b505050506040513d601f19601f820116820180604052508101906101dd91906104b4565b90506101ea823383610371565b505050565b6101f7610231565b6001600160a01b03811661022557604051631e4fbdf760e01b81525f60048201526024015b60405180910390fd5b61022e81610322565b50565b5f546001600160a01b031633146101495760405163118cdaa760e01b815233600482015260240161021c565b604080515f808252602082019092526001600160a01b03841690839060405161028691906104cb565b5f6040518083038185875af1925050503d805f81146102c0576040519150601f19603f3d011682016040523d82523d5f602084013e6102c5565b606091505b50509050806101ea5760405162461bcd60e51b815260206004820152602360248201527f5472616e7366657248656c7065723a204554485f5452414e534645525f46414960448201526213115160ea1b606482015260840161021c565b5f80546001600160a01b038381166001600160a01b0319831681178455604051919092169283917f8be0079c531659141344cd1fd0a4f28419497f9722a3daafe3b4186f6b6457e09190a35050565b604080516001600160a01b038481166024830152604480830185905283518084039091018152606490920183526020820180516001600160e01b031663a9059cbb60e01b17905291515f928392908716916103cc91906104cb565b5f604051808303815f865af19150503d805f8114610405576040519150601f19603f3d011682016040523d82523d5f602084013e61040a565b606091505b509150915081801561043457508051158061043457508080602001905181019061043491906104e1565b6104805760405162461bcd60e51b815260206004820152601f60248201527f5472616e7366657248656c7065723a205452414e534645525f4641494c454400604482015260640161021c565b5050505050565b5f60208284031215610497575f5ffd5b81356001600160a01b03811681146104ad575f5ffd5b9392505050565b5f602082840312156104c4575f5ffd5b5051919050565b5f82518060208501845e5f920191825250919050565b5f602082840312156104f1575f5ffd5b815180151581146104ad575f5ffdfea26469706673582212206f2e8d255557bdc825a3e23d91b3b06e3fcd9e74deaab34f9d3055cf11ff0b7164736f6c634300081c0033",
  "linkReferences": {},
  "deployedLinkReferences": {},
  "immutableReferences": {},
  "inputSourceName": "project/contracts/launchpad/LPVault.sol",
  "buildInfoId": "solc-0_8_28-ccea383ae6139d65fe05d3fd0a825a3dfd736812"
}